:100000000C9446000C9465000C9465000C946500FB
:100010000C9465000C9465000C9465000C946500CC
:100020000C9465000C9465000C9465000C946500BC
:100030000C9465000C9404020C9465000C9465000B
:100040000C9465000C9465000C9465000C9465009C
:100050000C9465000C9465000C9465000C9465008C
:100060000C9465000C9465000C9465000C9465007C
:100070000C9465000C9465000C9465000C9465006C
:100080000C9465000C9465000C94650011241FBE4F
:10009000CFEFD0E4DEBFCDBF11E0A0E0B1E0E0E5FE
:1000A000F5E100E00BBF02C007900D92AA37B1073F
:1000B000D9F721E0AAE7B1E001C01D92A839B20743
:1000C000E1F70E947E080C949E0A0C940000CF93E6
:1000D000DF93D82FC0E013C0ED2FF0E0EE0FFF1F2D
:1000E000EE0FFF1FEE0FFF1FE457FE4FEC0FF11D49
:1000F000108240E06C2F8D2F0E946009CF5FC830C6
:1001000058F3DF91CF9108950F931F93CF93DF930F
:10011000082FC62FD72F81111DC0182F19C0812F6E
:1001200090E0DE01A80FB91FE02FF0E02C91EE0F58
:10013000FF1FEE0FFF1FEE0FFF1FE457FE4FE80FEC
:10014000F91F20834C91612F802F0E9460091F5F4F
:10015000183028F3DF91CF911F910F9108958111ED
:1001600002C0683008F00895E82FF0E0EE0FFF1F9E
:10017000EE0FFF1FEE0FFF1FE457FE4FE60FF11DBE
:1001800040830E946009EFCF962F6034E8F46770D7
:10019000E82FF0E0EE0FFF1FEE0FFF1FEE0FFF1F27
:1001A000E457FE4FE60FF11D2081442371F0969530
:1001B0009695969541E050E002C0440F551F9A95E0
:1001C000E2F7422B0E94AF0008959695969596957A
:1001D00041E050E002C0440F551F9A95E2F7409568
:1001E0004223F0CF41E00E94C400089540E00E9405
:1001F000C40008950E941B090895CF930E948109AD
:10020000C0E028C0EC2FF0E0EE0FFF1FEE0FFF1F45
:10021000EE0FFF1FE457FE4FE80FF11D10828F5FB6
:10022000883080F361E08C2F0E94130960E08C2FEE
:100230000E94230960E08C2F0E9433096FE08C2F0D
:100240000E941B0967E08C2F0E942B098C2F0E94B3
:100250006700CF5FCC2311F0CF9108958C2FE0CFB2
:10026000CF93C82F8A3051F09091C00095FFFCCFFA
:10027000C093C60090E080E0CF9108958DE00E9489
:100280003001F2CF482F592F30E020E002C02F5F1D
:100290003F4F241735074CF490E080E0873063E04F
:1002A0009607ACF700000196F9CF08959BB19F7BAC
:1002B0009BB988B98BB180688BB900008BB18F77FF
:1002C0008BB982E090E00E944201089581E00E9493
:1002D00056010895813120F481580E9456010895F5
:1002E00081550E945601089584E690E00E944201E3
:1002F00088E30E94560186E00E9456018FE00E942A
:10030000560181E00E9456018AE090E00E9442017D
:1003100008959BB190649BB988B98BB180688BB903
:1003200000008BB18F778BB981E090E00E94420191
:1003300008950F931F93CF93DF93182FC62FD72FB6
:100340000E9466018881882351F001E0010F812F0E
:100350000E946A0189910E948901102FF3CFDF91D9
:10036000CF911F910F91089511B887E880937A007B
:1003700080E480937C0008958770806480937C0083
:10038000EAE7F0E080818064808380917A0084FFD6
:10039000FCCFEAE7F0E080818061808320917800E3
:1003A00090917900892F90E0982F8827820F911DD6
:1003B00008958BE0809381008DE790E09093890011
:1003C0008093880082E080936F00109285001092E5
:1003D00084008091030190910401A0910501B091E6
:1003E00006018093860190938701A0938801B093C2
:1003F00089018FB780688FBF08951092810008959A
:1004000081E080938A0108951F920F920FB60F9298
:1004100011240BB60F922F933F934F935F936F93DB
:100420007F938F939F93AF93BF93EF93FF938091AD
:10043000860190918701A0918801B091890101976F
:10044000A109B1098093860190938701A093880147
:10045000B0938901892B8A2B8B2B99F0FF91EF9117
:10046000BF91AF919F918F917F916F915F914F91CC
:100470003F912F910F900BBE0F900FBE0F901F90CA
:1004800018950E9400028091030190910401A091AF
:100490000501B09106018093860190938701A09396
:1004A0008801B0938901DACF60930301709304014E
:1004B00080930501909306016093860170938701F4
:1004C0008093880190938901089580910001909113
:1004D000010101969093010180930001089580919C
:1004E0000001909101010197909301018093000117
:1004F0000895CF93DF93C82FD92F209749F1C130AA
:10050000D105F1F1C230D10509F452C0C330D10593
:1005100009F466C0C430D10509F47AC0C530D105EC
:1005200009F48EC0C630D10509F4A2C0C730D10588
:1005300009F4B6C0C830D10509F4CAC0C930D10524
:1005400009F4DEC02A9709F4F3C0DF91CF91089532
:1005500010928B0167E571E080E00E94840081E0E9
:1005600080938B0167E571E00E9484002FE78AE1A8
:1005700096E0215080409040E1F700C00000C2CFDB
:1005800010928B016FE471E080E00E94840081E0B2
:1005900080938B016FE471E00E9484002FE78AE171
:1005A00096E0215080409040E1F700C00000AACFC3
:1005B00010928B0167E471E080E00E94840081E08A
:1005C00080938B0167E471E00E9484002FE78AE149
:1005D00096E0215080409040E1F700C0000096CFA7
:1005E00010928B016FE371E080E00E94840081E053
:1005F00080938B016FE371E00E9484002FE78AE112
:1006000096E0215080409040E1F700C0000082CF8A
:1006100010928B0167E371E080E00E94840081E02A
:1006200080938B0167E371E00E9484002FE78AE1E9
:1006300096E0215080409040E1F700C000006ECF6E
:1006400010928B016FE271E080E00E94840081E0F3
:1006500080938B016FE271E00E9484002FE78AE1B2
:1006600096E0215080409040E1F700C000005ACF52
:1006700010928B0167E271E080E00E94840081E0CB
:1006800080938B0167E271E00E9484002FE78AE18A
:1006900096E0215080409040E1F700C0000046CF36
:1006A00010928B016FE171E080E00E94840081E094
:1006B00080938B016FE171E00E9484002FE78AE153
:1006C00096E0215080409040E1F700C0000032CF1A
:1006D00010928B0167E171E080E00E94840081E06C
:1006E00080938B0167E171E00E9484002FE78AE12B
:1006F00096E0215080409040E1F700C000001ECFFE
:1007000010928B016FE071E080E00E94840081E034
:1007100080938B016FE071E00E9484002FE78AE1F3
:1007200096E0215080409040E1F700C000000ACFE1
:1007300010928B0167E571E080E00E94840081E007
:1007400080938B0167E571E00E9484002FE78AE1C6
:1007500096E0215080409040E1F700C00000F5CEC7
:10076000809100019091010108959093010180937F
:10077000000108950F931F93CF93DF930E94B4015C
:1007800080E00E94BC01C82FD92F81E00E94BC01EB
:10079000082F192F82E00E94BC0180919601909150
:1007A0009701019759F081E090E090939701809331
:1007B0009601DF91CF911F910F910895C03981E08B
:1007C000D807A4F488E085B981E080937E01109277
:1007D0007B0110927D0110927C0110927A0181E0E0
:1007E00090E09093970180939601E3CFC935D24072
:1007F000A4F080E185B981E080937D0110927B01B6
:1008000010927E0110927C0110927A0181E090E0BA
:100810009093970180939601CCCF093582E0180719
:10082000A4F082E085B981E080937B0110927D0184
:1008300010927E0110927C0110927A0181E090E08A
:100840009093970180939601B4CF00391140A4F49E
:1008500084E085B981E080937C0110927D01109243
:100860007E0110927B0110927A0181E090E09093DA
:100870009701809396019DCF81E085B980937A019D
:1008800010927D0110927E0110927B0110927C01EA
:1008900081E090E090939701809396018ACF8091B8
:1008A000940190919501009739F0019759F01092B9
:1008B00097011092960106C081E090E09093950117
:1008C000809394018091940190919501009739F063
:1008D0000197D1F01092970110929601089510920D
:1008E0008B016FE271E080E00E94840081E08093E0
:1008F0008B016FE271E00E94840085E090E09093AC
:1009000001018093000108950E942C0A63E070E0C9
:100910000E949409282F392F809384019093850198
:100920002115310509F0B4C081E080938001109257
:1009300081011092820110927F018BB98091000198
:10094000909101011816190634F421E030E030933B
:10095000970120939601892B09F470C080910001C2
:1009600090910101079709F47EC080918201813046
:1009700009F47CC180918101813009F4C4C1809166
:100980008001813009F40CC280917F01813009F42B
:1009900054C280918001813009F49CC280917F0112
:1009A000813009F4ECC280918101813009F43CC3AB
:1009B00080918201813009F091CF80917B0181305B
:1009C00049F080917D01813029F080917C01813056
:1009D00009F084CF0E946F0280930001909301017F
:1009E0000E94790280910001909101011816190668
:1009F00034F421E030E03093970120939601892B65
:100A000009F467C38091000190910101079709F0F3
:100A100065CF10928B016FE271E080E00E9484004C
:100A200081E080938B016FE271E00E94840085E099
:100A300090E09093010180930001089510928B0142
:100A40006FE271E080E00E94840081E080938B017E
:100A50006FE271E00E94840085E090E090930101D4
:100A6000809300017BCF10928B016FE271E080E0F8
:100A70000E94840081E080938B016FE271E00E940C
:100A8000840085E090E090930101809300016DCF98
:100A90002130310509F43FC02230310509F486C008
:100AA0002330310509F061CF81E0809381011092FC
:100AB000800110927F011092820180E48BB98091B5
:100AC0000001909101011816190634F421E030E07C
:100AD0003093970120939601892B09F4B2C080913D
:100AE000000190910101079709F03FCF10928B010F
:100AF0006FE271E080E00E94840081E080938B01CE
:100B00006FE271E00E94840085E090E09093010123
:100B1000809300012ACF81E08093820110928101AD
:100B200010927F011092800180E18BB980910001C9
:100B3000909101011816190634F421E030E0309349
:100B4000970120939601892BE1F08091000190910B
:100B50000101079709F009CF10928B016FE271E054
:100B600080E00E94840081E080938B016FE271E05D
:100B70000E94840085E090E0909301018093000141
:100B8000F4CE10928B016FE271E080E00E9484004D
:100B900081E080938B016FE271E00E94840085E028
:100BA00090E09093010180930001CFCF81E080938A
:100BB0007F0110928101109282011092800180E2E7
:100BC0008BB980910001909101011816190634F437
:100BD00021E030E03093970120939601892BE1F0DA
:100BE0008091000190910101079709F0BECE10920B
:100BF0008B016FE271E080E00E94840081E08093CD
:100C00008B016FE271E00E94840085E090E0909398
:100C1000010180930001A9CE10928B016FE271E077
:100C200080E00E94840081E080938B016FE271E09C
:100C30000E94840085E090E0909301018093000180
:100C4000CFCF10928B016FE271E080E00E948400B0
:100C500081E080938B016FE271E00E94840085E067
:100C600090E0909301018093000139CF80917E0143
:100C7000813009F07FCE0E9465028093000190933D
:100C800001010E94790280910001909101011816E2
:100C9000190634F421E030E0309397012093960157
:100CA000892BE1F08091000190910101079709F0F3
:100CB00061CE10928B016FE271E080E00E948400AF
:100CC00081E080938B016FE271E00E94840085E0F7
:100CD00090E090930101809300014CCE10928B0123
:100CE0006FE271E080E00E94840081E080938B01DC
:100CF0006FE271E00E94840085E090E09093010132
:100D000080930001CFCF80917D01813009F037CEF3
:100D10000E94650280930001909301010E94790274
:100D200080910001909101011816190634F421E018
:100D300030E03093970120939601892BE1F0809168
:100D4000000190910101079709F019CE10928B01D3
:100D50006FE271E080E00E94840081E080938B016B
:100D60006FE271E00E94840085E090E090930101C1
:100D70008093000104CE10928B016FE271E080E05D
:100D80000E94840081E080938B016FE271E00E94F9
:100D9000840085E090E09093010180930001CFCF23
:100DA00080917C01813009F0EFCD0E946502809333
:100DB0000001909301010E947902809100019091BD
:100DC00001011816190634F421E030E03093970140
:100DD00020939601892BE1F080910001909101010F
:100DE000079709F0D1CD10928B016FE271E080E09E
:100DF0000E94840081E080938B016FE271E00E9489
:100E0000840085E090E09093010180930001BCCDC7
:100E100010928B016FE271E080E00E94840081E01B
:100E200080938B016FE271E00E94840085E090E086
:100E30009093010180930001CFCF80917B0181309D
:100E400009F0A7CD0E9465028093000190930101F3
:100E50000E947902809100019091010118161906F3
:100E600034F421E030E03093970120939601892BF0
:100E7000E1F08091000190910101079709F089CD7F
:100E800010928B016FE271E080E00E94840081E0AB
:100E900080938B016FE271E00E94840085E090E016
:100EA000909301018093000174CD10928B016FE249
:100EB00071E080E00E94840081E080938B016FE20A
:100EC00071E00E94840085E090E09093010180939E
:100ED0000001CFCF80917B01813049F080917D016D
:100EE000813029F080917E01813009F057CD0E9438
:100EF0006F0280930001909301010E94790280911A
:100F00000001909101011816190634F421E030E037
:100F10003093970120939601892BE1F08091000195
:100F200090910101079709F039CD10928B016FE282
:100F300071E080E00E94840081E080938B016FE289
:100F400071E00E94840085E090E09093010180931D
:100F5000000124CD10928B016FE271E080E00E94CD
:100F6000840081E080938B016FE271E00E94840035
:100F700085E090E09093010180930001CFCF8091B4
:100F80007C01813049F080917D01813029F0809190
:100F90007E01813009F007CD0E946F02809300012D
:100FA000909301010E9479028091000190910101CA
:100FB0001816190634F421E030E03093970120939D
:100FC0009601892BE1F08091000190910101079732
:100FD00009F0E9CC10928B016FE271E080E00E9491
:100FE000840081E080938B016FE271E00E948400B5
:100FF00085E090E09093010180930001D4CC1092A1
:101000008B016FE271E080E00E94840081E08093B8
:101010008B016FE271E00E94840085E090E0909384
:10102000010180930001CFCF80917B01813049F095
:1010300080917C01813029F080917E01813009F01E
:10104000B7CC0E946F0280930001909301010E942F
:10105000790280910001909101011816190634F46B
:1010600021E030E03093970120939601892BE1F045
:101070008091000190910101079709F099CC10929D
:101080008B016FE271E080E00E94840081E0809338
:101090008B016FE271E00E94840085E090E0909304
:1010A00001018093000184CC10928B016FE271E00A
:1010B00080E00E94840081E080938B016FE271E008
:1010C0000E94840085E090E09093010180930001EC
:1010D000CFCF10928B016FE271E080E00E9484001C
:1010E00081E080938B016FE271E00E94840085E0D3
:1010F00090E0909301018093000184CC8FEF84B93C
:1011000015B88AB91BB887B918B80E94FD000E94AB
:10111000FD0010928B016FE271E080E00E9484007C
:1011200081E080938B016FE271E00E9484002FE7E1
:101130008AE196E0215080409040E1F700C0000035
:101140006EE170E080E090E00E9454020E94D901BC
:101150000F2EF4E6CF2ED12CE12CF12CF02D10C067
:101160000E944F04C12CD12C760180918A018823E2
:10117000E1F310928A0182E3C80ED11CE11CF11C3C
:101180000E94BA0324E6C216D104E104F10468F314
:10119000E7CF98E007C02BB12D7F2BB92BB128608A
:1011A0002BB991509923E9F0292F2150330BB90124
:1011B00041E050E002C0440F551F2A95E2F7282F66
:1011C00030E02423352302C0359527956A95E2F750
:1011D0003BB1377F3BB92223F1F22BB122602BB90F
:1011E000DDCF0895CF93DF93D82FC42F882319F034
:1011F000DF91CF9108958BB18B7F8BB9862F0E94A1
:10120000C9088C2F0E94C908CD2FCD1740F480E06B
:101210000E94C90880E00E94C908CF5FF6CF8BB159
:1012200084608BB9E5CF623008F00895462F6CE0FA
:101230000E94F208FACF603108F00895462F6AE064
:101240000E94F208FACF623008F00895462F6FE04E
:101250000E94F208FACF683008F00895462F6BE03C
:101260000E94F208FACF462F69E00E94F208089522
:10127000462F61E00E94F2080895462F62E00E9426
:10128000F2080895462F63E00E94F2080895462F61
:1012900064E00E94F2080895462F65E00E94F2087B
:1012A0000895462F66E00E94F2080895462F67E0F1
:1012B0000E94F2080895462F68E00E94F2080895FF
:1012C000E62F642FE830E0F4F0E0E056F54F0C94A0
:1012D000A8090E94380908950E943D0908950E94B6
:1012E000420908950E94470908950E944C090895F3
:1012F0000E94510908950E94560908950E945B09B1
:1013000008958AB182608AB98AB188608AB98AB13F
:1013100084608AB98BB18D7F8BB98BB1877F8BB994
:101320008BB18B7F8BB9089597FB072E16F4009431
:1013300007D077FD09D00E94B10907FC05D03EF423
:10134000909581959F4F0895709561957F4F089571
:10135000EE0FFF1F0024001C0BBE0790F691E02D3E
:101360000994AA1BBB1B51E107C0AA1FBB1FA617EC
:10137000B70710F0A61BB70B881F991F5A95A9F73E
:1013800080959095BC01CD010895CF92DF92EF92A8
:10139000FF92CF93DF93CDB7DEB72A970FB6F894BD
:1013A000DEBF0FBECDBF89879A87A985BA852D91EB
:1013B0003D914D915C9129833A834B835C83232B30
:1013C000242B252B41F424E239ED4BE557E029830A
:1013D0003A834B835C8369817A818B819C812DE187
:1013E00033EF41E050E00E943B0A69017A01A7EA2D
:1013F000B1E49B01AC010E945A0A69837A838B8312
:101400009C83ACEEB4EFA70196010E94680A9B0191
:10141000AC0189819A81AB81BC81820F931FA41F8B
:10142000B51FB7FF03C00197A109B048E985FA8548
:1014300080839183A283B3839F772A960FB6F89413
:10144000DEBF0FBECDBFDF91CF91FF90EF90DF9059
:10145000CF9008950C94C50985E791E00C94C509D7
:10146000B0E0A0E08093750190937601A09377019E
:10147000B09378010895052E97FB1EF400940E9406
:10148000520A57FD07D00E946D0A07FC03D04EF4A4
:101490000C94520A50954095309521953F4F4F4FEF
:1014A0005F4F089590958095709561957F4F8F4F10
:1014B0009F4F08950E948F0AA59F900DB49F900D95
:1014C000A49F800D911D11240895B7FF0C945A0A12
:1014D0000E945A0A821B930B0895A1E21A2EAA1B9E
:1014E000BB1BFD010DC0AA1FBB1FEE1FFF1FA217D4
:1014F000B307E407F50720F0A21BB30BE40BF50BD1
:10150000661F771F881F991F1A9469F76095709559
:10151000809590959B01AC01BD01CF010895A29FDC
:10152000B001B39FC001A39F700D811D1124911DB7
:10153000B29F700D811D1124911D0895F894FFCF65
:1015400069096C096F097209750978097B097E09B7
:10155000050004010000000000FF89B999FF00FFA9
:101560008181FF01010100FF8181FF8181FF00FF77
:1015700081010101010100FE8080FE8282FE00FFE8
:101580008080FF0101FF00848484FF04040400FEC6
:101590000202FE0202FE00FE0202FE8080FE001039
:1015A00030501010107E008142241818244281000F
:1015B00000010204885020000000020000000030FA
:0A15C000010000000001000000001F
:00000001FF
